:020000040800F2
:100000004807002035020008C31A0008D518000868
:10001000C11A0008D9050008571F00080000000099
:10002000000000000000000000000000271C000885
:10003000DB05000800000000251C0008291C000842
:100040004F0200084F0200084F0200084F0200084C
:100050004F0200084F0200084F0200084F0200083C
:100060004F0200084F0200084F0200084F0200082C
:100070004F0200084F0200084F0200084F0200081C
:100080004F0200084F0200084F0200080000000065
:100090000000000000000000000000004F02000807
:1000A0004F0200084F0200084F0200084F020008EC
:1000B0004F0200084F0200084F0200084F020008DC
:1000C0004F0200084F0200084F0200084F020008CC
:1000D0004F0200084F0200084F0200080000000015
:1000E0004F0200084F0200084F0200080000000005
:1000F0000000000000000000000000004F020008A7
:10010000000000004F0200084F0200084F020008E4
:1001100000000000000000000000000000000000DF
:100120004F0200084F0200084F0200084F0200086B
:100130004F02000800000000000000000000000066
:100140000000000000000000000000004F02000856
:100150004F0200084F0200084F0200084F0200083B
:100160004F0200084F0200080000000000000000DD
:10017000000000000000000000000000000000007F
:10018000000000004F020008000000000000000016
:100190004F02000800F002F800F03CF80AA090E8D6
:1001A000000C82448344AAF10107DA4501D100F032
:1001B00031F8AFF2090EBAE80F0013F0010F18BFC3
:1001C000FB1A43F0010318471026000030260000F8
:1001D000103A24BF78C878C1FAD8520724BF30C873
:1001E00030C144BF04680C60704700000023002445
:1001F00000250026103A28BF78C1FBD8520728BF37
:1002000030C148BF0B6070471FB502F0D8FA1FBD60
:1002100010B510BD00F0CFF81146FFF7F5FF01F063
:1002200001FF00F0EDF803B4FFF7F2FF03BC00F0AC
:10023000F5F800000948804709480047FEE7FEE757
:10024000FEE7FEE7FEE7FEE7FEE7FEE7FEE7FEE786
:1002500004480549054A064B70470000C11C0008C8
:1002600095010008480100204807002048030020AD
:100270004803002053EA020C00F069802DE9F04B9E
:100280004FF00006002B1FBFB3FA83F503FA05F405
:1002900024FA05F65E4012BF1643B2FA82F502FA5E
:1002A00005F4C5F120051EBF22FA05FC44EA0C0442
:1002B000203556EA044C4FEA144418BF641C4FF032
:1002C00000084FF00009904271EB030C39D300296C
:1002D00019BFB1FA81F701FA07F6B0FA80F700FA10
:1002E00007F6C7F120071EBF20FA07FC46EA0C06F6
:1002F0002037B6FBF4FCA7EB0507103F07F01F0BF8
:10030000CBF120060CFA0BFB2CFA06F644BFB346E1
:100310000026202FA4BF5E464FF0000B5BEA060CC0
:1003200008BF4FF0010B19EB0B09ABFB027C48EB4C
:100330000608C01B06FB02CC0BFB03CC71EB0C01C7
:10034000C1E70B46024641464846BDE8F08B13B56F
:100350004FF000004FF00001AFF30080BDE81C40FB
:1003600070474FF0000200B5134694469646203978
:1003700022BFA0E80C50A0E80C50B1F12001BFF45E
:10038000F7AF090728BFA0E80C5048BF0CC05DF8C4
:1003900004EB890028BF40F8042B08BF704748BF12
:1003A00020F8022B11F0804F18BF00F8012B704786
:1003B000704770477047754600F02CF8AE46050050
:1003C0006946534620F00700854618B020B5FFF770
:1003D0003FFFBDE820404FF000064FF000074FF010
:1003E00000084FF0000B21F00701AC46ACE8C00953
:1003F000ACE8C009ACE8C009ACE8C0098D4670475C
:1004000010B50446AFF300802046BDE81040FFF76A
:100410000ABF000000487047E8000020014918208A
:10042000ABBEFEE72600020070470000464910B54B
:100430004A6822F440324A604A6843681A434A6074
:1004400001684A6822F480724A6001684A68036958
:1004500042EA03224A6001684A6822F040724A6018
:1004600001684A6883681A434A6001688A6822F40E
:1004700000628A6001688A68C3681A438A60816A78
:100480006FF07062D14201688A6822F070628A60FF
:1004900001688A680CD0836A1A438A6001688A6896
:1004A00022F040528A6001688A68C36A1A4301E0F8
:1004B00022F040528A6001688A6822F002028A6053
:1004C00001688A68037E42EA43028A6090F820103D
:1004D000002901684A680FD042F400624A6001684E
:1004E0004A6822F460424A6001684A68174C436ACD
:1004F00004EB43331A4301E022F400624A600168CE
:10050000CA6A22F47002CA620168CA6A838B104CFC
:1005100004EB03531A43CA6201688A6822F400722A
:100520008A6001688A6890F8303042EA43228A6023
:1005300001688A6822F480628A6001688A6840697A
:1005400042EA8020886010BD0023014000E0FFFFE8
:100550000000F0FF10B51C482DED028B00F034FABE
:10056000194800F0C1F980B200EE100A9FED188A18
:10057000DFED188AB8EE400A144C20EE080A6080BD
:1005800020EE280A10EE100A02F0A8F8C4E90201D1
:100590000A2000F07FFA0C4800F016FA0A4800F032
:1005A000A3F980B200EE100AA080B8EE400A20EE57
:1005B000080A20EE280A10EE100A02F08FF8C4E9AB
:1005C0000401BDEC028B10BD58000020300000205B
:1005D0000000803933335340FEE7704772B6FEE7C0
:1005E00070B590F83C20694D012A19D0012280F89D
:1005F0003C200A6807230468092A13D9E6680A3AE6
:1006000002EB420293409E43E6600A788B680A3A06
:1006100002EB420293400268D4682343D36010E0A7
:10062000022070BD266902EB420293409E43266180
:100630000A788B6802EB42029340026814692343F4
:1006400013610268936B23F4401393630268936B06
:100650000C8A4F4E06EB0454234393630A790B7CB8
:10066000D21AD21C02EB82021F2393400268946BC1
:100670009C4394630A790B7CD21AD21C02EB82034E
:100680000A8892B29A4003689C6B22439A638A69F3
:10069000AA420268936823F4702393600268936807
:1006A0000CD08C69234393600268936823F4401351
:1006B000936002689368CC69234301E023F44013FC
:1006C00093604A7D002A0268536802D043F4806335
:1006D00001E023F4806353600A7D002A02685368B6
:1006E00002D043F4805301E023F4805353604A68FE
:1006F000012A16D0022A1FD0032A026827D0136AC3
:100700006FF30B0313620268136ACC68234313620E
:10071000214B04681F4A9C4227D10C68122C20D020
:1007200023E0026853696FF30B0353610268536956
:10073000CC6823435361EBE7026893696FF30B03C3
:10074000936102689369CC6823439361E0E7D369BE
:100750006FF30B03D3610268D369CC682343D36181
:10076000D6E7546844F48004546004689C4208D17D
:100770000968102901D0112903D1516841F4000101
:100780005160002180F83C10084670BD01000F0048
:100790000000F0FF002301400020014078B5002454
:1007A000009490F83C20012A19D0012280F83C20C6
:1007B0000A6807230568092A13D9EE680A3A02EB8A
:1007C000420293409E43EE600B788A680A3B03EB3B
:1007D00043039A400368DD682A43DA6010E0022090
:1007E00078BD2E6902EB420293409E432E610B7846
:1007F0008A6803EB43039A4003681D692A431A6120
:100800004A681F23072A13D205686E6B521E02EB3B
:10081000820293409E436E630B790A885B1E92B2FC
:1008200003EB83039A4003685D6B2A435A6327E016
:1008300005680D2A12D22E6BD21F02EB8202934062
:100840009E432E630B790A88DB1F92B203EB83036E
:100850009A4003681D6B2A431A6311E0EE6A0D3A51
:1008600002EB820293409E43EE620B790A880D3BB5
:1008700092B203EB83039A400368DD6A2A43DA628B
:10088000164B0568144A9D4206D10D68122D03D1FE
:10089000556845F48005556005689D4218D10B6880
:1008A000102B01D0112B13D1536843F40003536074
:1008B000096810290CD10A490A4A0968B1FBF2F10A
:1008C00001EB8101490000E0491E00910029FBD1A4
:1008D00080F83C40002078BD00230140002001400A
:1008E0005400002040420F000068C06C704770B593
:1008F00004004FF0000503D0206C002610B107E083
:10090000012070BD204600F01DF8666484F83C604C
:10091000206CC00610D4206C20F4885040F00200F7
:1009200020642046FFF782FD6664206C20F0020000
:1009300040F00100206400E0012584F83C60284676
:1009400070BD000030B587B0044614216846FFF73B
:1009500008FD1949206888422CD1184800240168F4
:1009600041F480710160006800F4807005901348C4
:100970001438016841F001010160016801F00101D2
:100980000591016841F0020101600068032500F053
:10099000020005900120CDE900056946029408484F
:1009A00000F08AF80220CDE9000569460294054866
:1009B00000F082F807B030BD00200140443802400A
:1009C000000002400004024018B50021009190F898
:1009D0003C20012A07D0012280F83C20026893685D
:1009E000DB0702D011E0022018BD936843F0010339
:1009F0009360244A244B1268B2FBF3F202EB4202EA
:100A000000E0521E0092002AFBD102689368DB07C7
:100A10002ED0036C40F20164A34343F4807303645B
:100A200053685B0505D5036C23F4005343F48053EE
:100A30000364036CDB0404D5436C23F006034364B6
:100A400000E0416480F83C1010496FF0220313600D
:100A500049680068C90602D00D49884210D18168F2
:100A600011F0405F0CD1816841F08041816007E066
:100A7000016C41F010010164416C41F001014164DD
:100A8000002018BD5400002040420F000023014008
:100A90000020014070B5044600F004F90546601CD2
:100AA00002D004480078044400F0FCF8401BA04247
:100AB000FAD370BD480000202DE9F84FDFF8B8A147
:100AC0000022012403254FF00F090AF1040BAAF1BB
:100AD000040E00BF0B6804FA02F63340B34273D130
:100AE0000F7907F00307012F01D0022F16D1876875
:100AF0004FEA420805FA08FC27EA0C07D1F80CC0B7
:100B00000CFA08FC4CEA070CC0F808C04768B74369
:100B10000E79C6F3001696403E4346600E79F643C2
:100B2000B6070DD0C768560005FA06FC27EA0C0781
:100B3000D1F808C00CFA06FC4CEA070CC0F80CC04F
:100B40000E7906F00306022E10D1D60800EB8608B7
:100B5000D8F8206057074FEAD76C09FA0CF7BE4364
:100B60000F6907FA0CF73743C8F8207006684FEA98
:100B7000420C05FA0CF7BE430F7907F0030707FA9A
:100B80000CF7374307604E6816F4403F6DD03B4E7C
:100B9000376847F480473760366822F0030706F469
:100BA00080460096364E07EB060CDCF8086897077F
:100BB0003F0F09FA07F826EA0806DFF8C880404523
:100BC00003D14FF000081EE04FE0DFF8BC80404545
:100BD00002D14FF0010816E0DFF8B080404502D1A5
:100BE0004FF002080FE0DFF8A880404502D14FF037
:100BF000030808E0DFF89C80404502D14FF004086C
:100C000001E04FF0070808FA07F848EA0608CCF8B0
:100C10000888DAF800605746D1F804C09E435FEABE
:100C2000CC2C00D51E433E60DBF800605F46D1F857
:100C300004C09E435FEA8C2C00D51E433E60DEF864
:100C400000607746D1F804C09E435FEA8C3C00D533
:100C50001E433E60084F083F3E68D1F804C09E43E3
:100C60005FEACC3C00D51E433E60521C102AFFF4C4
:100C700031AFBDE8F88F0000083C01404438024025
:100C80000030014000000240000402400008024021
:100C9000000C0240001002400AB181617047090453
:100CA000FBE7000001488068704700004800002012
:100CB0000248816802781144816070474800002032
:100CC0000B4810B5016841F400710160016841F4FE
:100CD00080610160016841F480710160032000F0CF
:100CE00061F80F2000F006F800F024F8002010BD95
:100CF000003C024070B50D4D04464FF47A712878DF
:100D0000B1FBF0F00A490968B1FBF0F000F0DEFA3F
:100D100048B9102C07D200222146501E00F022F8BC
:100D200000206C6070BD012070BD000048000020F4
:100D3000540000200A4808B5016841F48041016070
:100D4000006800F4804000900548001F016841F0F1
:100D500080510160006800F08050009008BD0000E4
:100D600044380240F0B40E4B1B680C46C3F3022318
:100D7000C3F10705042D00D90425191D072901D247
:100D8000002300E0DB1E012606FA05F1491E214082
:100D900099409E40761E16403143F0BC01F032B9B6
:100DA0000CED00E0064900F0070208684FF6FF036B
:100DB000184040EA0220034A1043086070470000D0
:100DC0000CED00E00000FA052DE9F0470E460500A5
:100DD00065D0DFF81481D8F80000F7B200F0070002
:100DE000B04207D288F80070D8F8000000F0070081
:100DF000B04254D128683D4C810712D5400703D535
:100E0000206840F4E05020602878000703D520686F
:100E100040F4604020602068A96820F0F00008439A
:100E200020602878C0072DD030496868083901282B
:100E300012D0022813D0032811D00968890700298D
:100E40002DDA216821F0030101432160FFF72AFF19
:100E5000814641F2883A0EE009688903EFE70968A4
:100E60008901ECE7FFF71EFFA0EB0901514502D90C
:100E70000320BDE8F0872068696800F00C00B0EB43
:100E8000810FEFD1D8F80010404601F00701B142C0
:100E900007D90770006800F00700B04201D00120B8
:100EA000E7E72878400705D52068E96820F4E05096
:100EB000084320602878000706D52068296920F4B7
:100EC000604040EAC100206000F018F82168084A3C
:100ED000C1F30311515CC840064908600648006828
:100EE000FFF708FF0020C4E7003C0240083802403A
:100EF000C8270008540000204C000020154810B5F9
:100F0000006810F00C02144813D01449042A0FD0C2
:100F1000082A0ED10F4C241F2268236802F03F02DA
:100F20005B0207D52068C0F38810A0FB010106E032
:100F3000084610BD2168C1F38811A1FB0001002300
:100F4000FFF798F92168C1F30141491C4900B0FB42
:100F5000F1F010BD083802400024F40040787D0113
:100F60002DE9F84F04006ED02078DFF84C93C007CD
:100F7000A9F104054AD009F104000168C1F3810117
:100F8000012908D00068C0F3810002280AD1D9F8ED
:100F90000000400206D52868800337D56068002825
:100FA000E1D033E06068B0F5803F10D0B0F5A02FFD
:100FB000286810D020F480302860286820F4802031
:100FC00028606068A8B1FFF76DFE06460DE028684E
:100FD00040F48030F4E740F480202860F7E700BF59
:100FE000FFF760FE801B642873D828688003F7D55C
:100FF0000CE0FFF757FE064605E000BFFFF752FE84
:10100000801B6428F0D828688003F7D42078DFF8A4
:10101000AC8280074FF0000A3ED5A748001D01684A
:1010200011F00C0F08D00068C0F3810002280BD12A
:10103000D9F80000400207D42868800716D5E06878
:10104000012800D112E033E1E068B8B10120C8F80E
:101050000000FFF727FE064605E000BFFFF722FE6F
:10106000801B0228C0D828688007F7D52868216926
:1010700020F0F80040EAC10028600DE0C8F800A0A8
:10108000FFF710FE064604E0FFF70CFE801B022867
:101090001FD828688007F7D42078000722D5864F0C
:1010A00087486169703771B101210160FFF7FAFD6E
:1010B000064604E0FFF7F6FD801B022809D83868D1
:1010C0008007F7D50EE0C0F800A0FFF7EBFD06465D
:1010D00005E082E0FFF7E6FD801B02287DD8386836
:1010E0008007F7D42078400768D5DFF8CCB1002717
:1010F0000BF13C0BDBF80000C0000BD4DBF8001058
:1011000041F08051CBF80010DBF80000012700F01F
:10111000805000906B4E3068C00510D4306840F4A9
:1011200080703060FFF7BEFD009005E0FFF7BAFD6C
:101130000099401A022850D83068C005F6D55E4E96
:10114000A0686C3601280FD00528306810D020F038
:1011500001003060306820F004003060A068B8B151
:10116000FFF7A0FD00900FE0306840F00100F4E7C9
:1011700040F004003060F7E7FFF794FD0099411A52
:1011800041F28830814266D830688007F4D50EE09D
:10119000FFF788FD009007E0FFF784FD0099411AF2
:1011A00041F28830814256D830688007F4D42FB19C
:1011B000DBF8001021F08051CBF80010A069C8B313
:1011C0003D49091D0968C1F3810102294AD002285D
:1011D000504607D0C8F8600000E03CE0FFF762FD31
:1011E00004463BE04746C8F86000FFF75BFD064653
:1011F00005E000BFFFF756FD801B02282BD82868AA
:101200008001F7D4D4E907010843A16A2E4A4908AE
:1012100002EB0141626A41EA8211084394F82C1002
:1012200040EA0161C9F8001001203866FFF73AFD75
:10123000044606E03EE000BFFFF734FD001B022835
:1012400009D828688001F7D534E000BFFFF72AFDF0
:10125000001B022802D90320BDE8F88F286880010E
:10126000F4D427E00128F7D0D9F80000E26900F4AF
:10127000800191421CD1226A00F03F01914217D1B6
:1012800047F6C071626A0140B1EB821F10D1A26AB9
:101290004FF0FF3300F4403103EB5202B1EB024F49
:1012A00006D194F82C1000F07060B0EB016F01D003
:1012B0000120D1E70020CFE7043802400000474278
:1012C000800E4742007000400000FFFF10B5401E36
:1012D000B0F1807F01D3012010BD4FF0E0246061A8
:1012E0000F21601700F08EFE0020A0610720206112
:1012F000002010BD10B590F83C20012A22D0012218
:1013000080F83C20CA688C6822F4407222434C6802
:1013100022F4806222430C6822F4006222430C69AA
:1013200022F4805222434C6922F400522243C969BC
:10133000002322F480420A4301684A6480F83C306A
:10134000002010BD022010BD70B590F83C20012A8D
:101350002CD0012480F83C40022280F83D20036814
:101360005A689D6822F070060A6832435A60104B32
:1013700002689A420ED0B2F1804F0BD00D4B9A42C8
:1013800008D00D4B9A4205D00C4B9A4202D00C4B20
:101390009A4204D1496825F080031943916080F88E
:1013A0003D40002180F83C10084670BD022070BD11
:1013B000000001400004004000080040000C004014
:1013C0000040014010B50446022249B104290ED064
:1013D000082913D094F84500012816D0012010BD2B
:1013E00094F842000128F9D184F842200FE094F8E3
:1013F00043000128F2D184F8432008E094F8440027
:101400000128EBD184F8442001E084F8452004222F
:10141000206800F0BCFC2068416C41F4004141644C
:101420000E49206888420ED0B0F1804F0BD00C4995
:10143000884208D00B49884205D00B49884202D027
:101440000A49884204D1816801F00701062903D0C6
:10145000016841F001010160002010BD0000014061
:101460000004004000080040000C00400040014023
:1014700070B504460D460068002200F088FC206824
:10148000036A41F211110B4240F2444206D1036A51
:10149000134203D1436C23F4004343642068036A7E
:1014A0000B4206D1016A114203D1016821F001010A
:1014B000016001203DB1042D08D0082D09D084F829
:1014C0004500002070BD84F84200FAE784F843002C
:1014D000F7E784F84400F4E710B5040003D094F86B
:1014E0003D0010B107E0012010BD002084F83C0051
:1014F000204600F01FF8022084F83D00211D2068DE
:1015000000F0E6FB012084F8460084F83E0084F8F1
:101510003F0084F8400084F8410084F8420084F8D9
:10152000430084F8440084F8450084F83D0000201E
:1015300010BD000008B500680649884208D1064879
:10154000016841F001010160006800F001000090B5
:1015500008BD0000000001404438024070B5044658
:1015600090F83C000025012817D0012684F83C6043
:10157000022084F83D002068826822F0770222F47D
:101580007F4282600868502838D00DDC20284FD078
:1015900005DC90B3102811D14AE0022070BD30283C
:1015A00046D040280AD13BE060282FD070280DD0CB
:1015B000B0F5805F03D0B0F5005F12D0012584F84C
:1015C0003D60002084F83C00284670BDCB68D1E91E
:1015D0000121206800F0E8FB2068816841F0770174
:1015E00009E0CB68D1E90121206800F0DDFB20682B
:1015F000816841F480418160E1E719E0CA68496887
:10160000206800F085FC5021206806E0CA6849681F
:10161000206800F08EFC6021206800F0CFFBCEE750
:10162000CA684968206800F073FC40212068F4E72C
:10163000226801461046F0E710B586B00446142132
:101640006846FEF78EFE0E492068884216D10D4886
:101650000021026842F001020260006800F001000F
:1016600005904FF4C07000900220CDE901010120E7
:10167000CDE9031069460448FFF71EFA06B010BD15
:1016800000000140303802400000024070B50446BE
:1016900090F83C0000260D4601280FD0012084F868
:1016A0003C006AB1042A1DD0082A2FD00C2A3FD052
:1016B0000126002084F83C00304670BD022070BD39
:1016C000206800F083FB2068816941F00801816196
:1016D0002068816921F004018161206881692A699B
:1016E000114311E0206800F099FB2068816941F402
:1016F000006181612068816921F4806181612068D5
:1017000081692A6941EA02218161D2E7206800F0FB
:10171000B1FB2068C16941F00801C1612068C1695D
:1017200021F00401C1612068C1692A69114311E0F7
:10173000206800F0CBFB2068C16941F40061C16101
:101740002068C16921F48061C1612068C1692A698A
:1017500041EA0221C161ACE710B5040003D094F85E
:101760003D0010B107E0012010BD002084F83C00CE
:10177000204600F01EF8022084F83D00211D20685C
:1017800000F0A6FA012084F8460084F83E0084F8B0
:101790003F0084F8400084F8410084F8420084F857
:1017A000430084F8440084F8450084F83D0000209C
:1017B00010BD704710B50446022249B104290ED06D
:1017C000082913D094F84100012816D0012010BD3B
:1017D00094F83E000128F9D184F83E200FE094F8F7
:1017E0003F000128F2D184F83F2008E094F840003F
:1017F0000128EBD184F8402001E084F84120012247
:10180000206800F0B7FA12492068884203D1426C80
:1018100042F400424264206888420ED0B0F1804F0A
:101820000BD00C49884208D00B49884205D00B499F
:10183000884202D00A49884204D1816801F0070138
:10184000062903D0016841F001010160002010BDAC
:10185000000001400004004000080040000C00406F
:101860000040014030B504460D460068002200F0FB
:1018700081FA174B41F2111120688A10984209D160
:10188000036A0B4206D1036A134203D1436C23F46B
:10189000004343642068036A0B4206D1016A114287
:1018A00003D1016821F00101016001203DB1042D47
:1018B00008D0082D09D084F84100002030BD84F8FC
:1018C0003E00FAE784F83F00F7E784F84000F4E7C9
:1018D00000000140FEE7000070B58CB000240894C1
:1018E00009940A94202168460B94FEF73AFD274894
:1018F0002549012501604FF480310561C0E90114DB
:10190000047680F820402249C0E90A140226C66104
:10191000C46080F830404561FEF7E9FF08B1FEF78A
:101920005DFE07200894CDE9095008A91748FEF785
:1019300035FF08B1FEF752FE0920CDE9080608A9D7
:101940001248FEF72BFF08B1FEF748FECDE900452F
:1019500010480294CDE906048DF8154004968DF8E0
:101960001440694609480394FEF73AFE08B1FEF7B1
:1019700035FE694605480196FEF732FE002801D083
:10198000FEF72CFE0CB070BD002001405800002076
:101990000100000F01000F0030B587B01421684628
:1019A000FEF7DFFC11480024016841F001010160ED
:1019B000016801F001010591016841F00201016037
:1019C00000680B4D00F00200059022466021284679
:1019D000FFF762F9602000900120CDE9010469461B
:1019E00028460394FFF768F807B030BD303802404E
:1019F0000004024010B596B000240F941094119486
:101A0000129413941C2108A81494FEF7AAFC202118
:101A10006846FEF7A6FC29482749C0E9001440F2B1
:101A20001F31C0E9024180210461C0E90541FFF78F
:101A300053FD08B1FEF7D2FD4FF480500F900FA96F
:101A40001E48FFF78BFD08B1FEF7C8FD1B48FFF7E6
:101A500083FE08B1FEF7C2FD139413A9174814942E
:101A6000FFF772FC08B1FEF7B9FD602008904FF453
:101A7000A870CDE909040B940C940D94002208A9D8
:101A80000E480E94FFF702FE08B1FEF7A7FD0820EE
:101A9000CDE9024000948002CDE9044001946946FA
:101AA00006480794FFF726FC08B1FEF797FD0348A8
:101AB000FFF7C2FD16B010BD00000140A0000020DD
:101AC000FEE7FEE70A489FED080B80ED000B9FED57
:101AD000090B80ED020B80ED040B80ED060B80ED11
:101AE000080B80ED0A0B70470000000000007540F5
:101AF00000000020000000000000000010B5384C7D
:101B000053EC112B2DED088B51EC100B9FED309BFE
:101B10009FED31AB00F0ECFC41EC180B84ED088B31
:101B200094ED040B53EC182B51EC100B00F08CFAD5
:101B300041EC1B0B51EC180B84ED04BB94ED0A0B2C
:101B400053EC102B00F0E0FC9FED260BC4E90601DE
:101B500053EC102B51EC1B0B00F096FB9FED230B6D
:101B600041EC1B0B53EC102B51EC180B00F08CFBD1
:101B700053EC1B2B00F068FA94ED001B53EC112B77
:101B800000F062FA41EC100B53EC192B84ED000BC2
:101B900084ED0A8B00F076FC02D284ED009B0AE013
:101BA00094ED000B53EC1A2B51EC100B00F030FBB2
:101BB00001D284ED00AB94ED000B84ED020B51ECEF
:101BC000100B00F0F5FA0B494863BDEC088B10BD13
:101BD00000000000004080400000000000C06240A3
:101BE000000000207B14AE47E17A843F0000000033
:101BF000000008400000014010B5FFF77FFF074CD0
:101C00006078002809D100210548FFF7DBFB00219F
:101C10000348FFF7CFFD0120607010BD30000020A9
:101C2000A000002070477047FFF742B830B593B06E
:101C300030216846FEF795FB14210CA8FEF791FBB6
:101C40001D480024016841F080510160006800F0E7
:101C5000805011901948016821F4404141F400413D
:101C600001600068022500F44040119001200390BB
:101C700010200490009506950820CDE907405020DB
:101C8000CDE9090504200B906846FFF769F908B112
:101C900072B6FEE70F20CDE90C054FF48050CDE978
:101CA0000E4002210CA81094FFF78EF8002801D0F6
:101CB00072B6FEE713B030BD4038024000700040FD
:101CC0000248016841F470010160704788ED00E04E
:101CD000F0B50268204B214C9F03214D214E9842C4
:101CE00007D0B84205D0A04203D0A84201D0B042EC
:101CF00004D122F0700C4A6842EA0C02984210D0DB
:101D0000B8420ED0A0420CD0A8420AD0B04208D0AF
:101D1000154CA04205D0154CA04202D0144CA04254
:101D200003D122F44074CA6822434C6922F0800235
:101D3000224302608A68C2620A688262984201D1C4
:101D400009690163012141610169C90703D0016982
:101D500021F001010161F0BD0000014000040040DC
:101D600000080040000C00400040014000440140D9
:101D70000048014010B501F01F030121046A994099
:101D80008C430462016A9A401143016210BD10B590
:101D900001F00F030421046A99408C430462016A34
:101DA0009A401143016210BD10B5846842EA0322D3
:101DB00024F47F440A432243826010BD826822F0EB
:101DC00070020A4342F007018160704730B5036A30
:101DD000026A22F0010202624268846924F07305FB
:101DE0000C682C4323F002058B682B430A4DA84254
:101DF0000BD123F00805CB6822F440722B434D69C8
:101E000023F0040315438A692A43426084614968C8
:101E10004163036230BD00000000014030B5026A3A
:101E2000036A23F010030362436884690D6824F495
:101E3000E64444EA05248D6822F0200242EA0512B5
:101E40000B4DA8420ED1CD6822F0800242EA051265
:101E50004D6923F4406343EA85038D6922F0400213
:101E600043EA85034360846149688163026230BD4F
:101E70000000014030B5036A026A22F480720262F7
:101E80004268C46923F4007324F073050C682C4382
:101E90008D6843EA05230C4DA8420ED1CD6823F48A
:101EA000006343EA05234D6922F4405242EA0512D9
:101EB0008D6923F4806342EA05124260C461496877
:101EC000C163036230BD00000000014030B5046A08
:101ED000026A22F4805202624268C3690D6823F4E8
:101EE000E64343EA05238D6824F4005444EA0534AC
:101EF000064DA84204D14D6922F4804242EA85127F
:101F00004260C36149680164046230BD0000014061
:101F100010B5036A046A24F001040462846924F0A1
:101F2000F00444EA021423F00A020A4384610262C4
:101F300010BD10B5036A046A24F0100404628469B9
:101F400023F0A00324F4704444EA023243EA01116E
:101F50008261016210BDFEE710B5104C207858B1C7
:101F6000012816D00A2813D194ED021B9FED0C0B0B
:101F7000BDE81040FFF740BEFFF7A4FD00210A486E
:101F8000FFF770FC00210848FFF772FA002060702C
:101F900010BD9FED061B94ED040BE9E73000002017
:101FA0000000000000000040A0000020B537F8C28B
:101FB00064AAEA3F70B512484FF42F750146428873
:101FC0008988AA4203D8A94201D8002116E00C4B07
:101FD000A2F2F6664FF4AF645B78A64202D8A9423B
:101FE00000D853B1A1F5A771A14208D85B3AA2422B
:101FF00005D8002B03D10A2100E00121017070BD3A
:10200000300000200907090E002804DB00F1E02061
:1020100080F80014704700F00F0000F1E02080F815
:10202000141D7047FEF74CFEFFF700FEFFF7B4FCEF
:10203000FFF7E0FCFFF750FCFEF78CFAFFF7BAFF62
:10204000FFF78AFFF8E7000010B591EA030F48BFD9
:1020500083F0004300F16082841A71EB030C05D217
:10206000121943EB0C03001B61EB0C01DFF824E1B8
:102070004FEA1154A4EB135C1EEA430F18BF9EEA0B
:10208000445F73D023EA0E03DCF1200E21EA0451F1
:1020900043F4801332D322FA0CFE10EB0E0023FA25
:1020A0000CFE41EB0E01CCF1200E03FA0EFE10EBFC
:1020B0000E0051F10001B1F5801FCCF1200E32D29B
:1020C00001EB045112FA0EF2BDE8104058BF704700
:1020D000401C38BF5FEA420218BF7047002814BF97
:1020E00020F0010041F100014FEA410313F5001F08
:1020F00038BF7047A1F1C04100F0BEB9012A43EBDF
:102100000302ACF1200CDCF11F0E32BF4FF0000EC9
:1021100023FA0CF310EB030041EB0451B4EB115F15
:10212000D0D0A1EB045101F5801149085FEA3000DD
:1021300001EB04510ED350F1000038BF12FA0EFE2D
:1021400008D1BDE81040C9E7401C38BF5FEA420231
:10215000CAD1C3E7BDE810404FEA410313F5001FA1
:1021600038BF7047A1F1C04100F086B99EEA445FD4
:1021700008D011EA5E0FBDE8104004BF01F0004135
:1021800000207047BDE8104070B500F027F900BF8F
:1021900064FBBE3E0000E0FF491058BFC1F1404162
:1021A0005B1058BFC3F140438B42EFF30080704790
:1021B0004FEA41034FEA5353A3F58063D3F11E0363
:1021C000C8BFD3F1210C0CDD4FF0004242EAC1221E
:1021D00042EA505232FA03FC8CEAE17CACEBE1704B
:1021E0007047102BC4BF0020704703F5787CBCF10A
:1021F000FF3F04D06FF0004282EA2100704770B5C3
:1022000000F0ECF84992248000207047F2E70000CB
:1022100051EA030C17D41CF5801F58BFBCF5801F72
:1022200000F10680994218BF704708BF904270477E
:1022300007D711F5801F58BF13F5801F19D4994295
:102240007047894270471CF5801F08D5BCF5801F78
:10225000F7D58B4218BF704708BF824270474FF4D2
:10226000001C1CEB410F38BF1CEB430F01D28B420B
:10227000704770B500F0B2F8922449004FF0005159
:102280004FF08053FFF788BFDFF848C170B51CEAF4
:10229000111E1EBF1CEA13159EEA0C0F95EA0C0FC7
:1022A00000F06F8081EA030423EA4C134EEAD47EE7
:1022B00021EA4C1141F4801143F48013AE44A1FB98
:1022C000024CA0FB0365AEF17F7E361955EB0C0581
:1022D000A1FB034C4CF10003A0FB021C16EB0C0607
:1022E000654153F10003094218BF46F0010613F49B
:1022F000007F0BD14FEA03314FEA0530340341EA46
:10230000155140EA16506FF003020AE04FEAC3216C
:102310004FEAC520F40241EA555140EA56506FF0A9
:10232000020202EB2E4201EB025585EACE710AD081
:102330005FEA440C18BF24F0004450F1000041F162
:10234000000120EAD47040F2FE7C624500D270BDEC
:10235000A84214BF4FF080444FF04044002E08BF05
:102360000024BEF1806FA8BFA1F1C041BDE870405C
:1023700080F282804FF0000001F1C04101F0004185
:1023800070479EEA0C0F0CEA131518BF95EA0C0F64
:1023900006D04FF0000081EA030E0EF0004170BD40
:1023A00000F01CF88900013E00F007B800F009B801
:1023B0004FEA430C5FEA5C5C08D081EA030100F05D
:1023C0005BB84FEA410C5FEA5C5CF6D14FF000006D
:1023D000014970470000FF070000F87F0EF1020E70
:1023E0002EF0030E5EF8046B364205D4012A43EB4F
:1023F000030515F5001F12D8012841EB010C1CF54F
:10240000001F0CD80ED14FEAD17C15F5001F0CEB44
:102410004C0C0CF1020C08BF4CEBD37C04E04FF0E9
:10242000080C01E04FEAD37C0CEB4C0526FA05F6CC
:1024300006F00706B6F1040C06D20EEB860CBDE8DA
:1024400070404CF0010C6047DFE80CF0090B020211
:102450004FF000414FF00000A1F5002170BD19467A
:102460001046012851EB010418BFD4F5001484BFB5
:10247000002001F0004170BD0808A0F500114FEAEE
:102480003101704753EA010C17D41CF5801F58BF67
:10249000BCF5801F00F106808B4218BF704708BF53
:1024A0008242704707D713F5801F58BF11F5801F70
:1024B00019D48B4270479B4270471CF5801F08D58A
:1024C000BCF5801FF7D5994218BF704708BF9042EE
:1024D00070474FF4001C1CEB430F38BF1CEB410F3F
:1024E00001D2994270470FB40CBC03BCFFF7C1BEC8
:1024F00091EA030F10B581F000413FF5ADAD83F0D7
:10250000004300F009B8000010B591EA030F48BF7E
:1025100083F000433FF5A0AD841A71EB030C07D2A2
:1025200012198CF0004C43EB0C03001B61EB0C0107
:10253000DFF8A4E14FEA1154A4EB135C1EEA430F49
:1025400018BF9EEA445F00F0B08023EA6E03524257
:1025500021EA0451C3EB6E0338BF5B1EDCF1200E91
:1025600025D322FA0CFE10EB0E0043FA0CFE41EBD1
:102570000E01CCF1200E03FA0EFE10EB0E0051F10D
:102580000001CCF1200E29D412FA0EF201EB045115
:10259000BDE8104058BF7047401C1CBFB2F1004F4F
:1025A000704700280CBF491C20F00100704712EB57
:1025B000020E43EB030218BF4FF0010E4EEA420237
:1025C000ACF1200CDCF11E0E54D943FA0CFE10EBDA
:1025D0000E0051F1FF31CCF11E0ED5D50EF1010EDA
:1025E00012FA0EFE404141EB010101EB445C5FEA4F
:1025F0005C5C10D910EBDE7001EB045138BFBEF10A
:10260000004FBDE8104018BF704700280CBF491CA0
:1026100020F00100704730D24FEAD42C11F50011A0
:1026200024F400641BD0B1FA81F20B3AA41AA41E60
:10263000D2F12003914030FA03F31943904001EBAB
:10264000CC71002C01EB0451BDE81040A8BF7047CD
:1026500001F1C0414FF0000001F000417047B0FAB5
:1026600080F310FA03F100D110BDE41A173C4805BD
:10267000C90AE4E701EB045110BD491001EB045114
:10268000BDE810404FEA300002E04FF00001704713
:102690004A0008BF0042F8D0B2F5001F28BF7047BB
:1026A00001F000414FF0000070479EEA445F07D000
:1026B00011EA5E0FBDE8104004BF00210020704702
:1026C000BDE8104070B5FFF789FE00BF40DFF63E61
:1026D00083F00041104670470000E0FF43004FEADE
:1026E000D30C4FEA3C0C43401FBF40070CF1605134
:1026F00013F0FE4F70471CF0006F03D100200CF068
:10270000004170470CF0004343EA507010B540EAB6
:10271000CC0000F00EF800BF000000924FEA00016C
:10272000FFF7AABE4FF000414FF00000A1F50021D5
:1027300070470EF1020E2EF0030E5EF8044B244299
:1027400004D44FEA4102B2F17F4F11D84FEA40035F
:10275000B3F17F4F0CD80ED14FEAD07CB2F17F4F4E
:102760000CEB4C0C0CF1020C08BF4CEBD17C04E0E0
:102770004FF0080C01E04FEAD17C0CEB4C0324FA3B
:1027800003F404F00704B4F1040C06D20EEB840C3D
:10279000BDE810404CF0010C6047DFE80CF0070882
:1027A00002024FF00040A0F5800010BD0846420034
:1027B00018BFD2F1807288BF00F0004010BD4FF00A
:1027C0004070E1EE100A70470000000000000000B9
:1027D0000102030406070809F8270008000000208A
:1027E00058000000D00100085028000858000020C0
:1027F000F0060000EC010008000000000000754039
:1028000000000000000000000000000000000000C8
:1028100000000000000000000000000000000000B8
:1028200000000000000000000000000000000000A8
:102830000000000000000000000000000000000098
:102840000100000010000000000000000024F4005F
:040000050800019559
:00000001FF
